{
    "contractName": "DrugAuth",
    "abi": [
        {
            "inputs": [],
            "stateMutability": "nonpayable",
            "type": "constructor"
        },
        {
            "inputs": [
                {
                    "internalType": "string",
                    "name": "_name",
                    "type": "string"
                },
                {
                    "internalType": "string",
                    "name": "_batchId",
                    "type": "string"
                },
                {
                    "internalType": "uint256",
                    "name": "_manufactureDate",
                    "type": "uint256"
                },
                {
                    "internalType": "uint256",
                    "name": "_expiryDate",
                    "type": "uint256"
                }
            ],
            "name": "addDrug",
            "outputs": [],
            "stateMutability": "nonpayable",
            "type": "function"
        },
        {
            "inputs": [
                {
                    "internalType": "string",
                    "name": "",
                    "type": "string"
                }
            ],
            "name": "drugs",
            "outputs": [
                {
                    "internalType": "string",
                    "name": "name",
                    "type": "string"
                },
                {
                    "internalType": "string",
                    "name": "batchId",
                    "type": "string"
                },
                {
                    "internalType": "uint256",
                    "name": "manufactureDate",
                    "type": "uint256"
                },
                {
                    "internalType": "uint256",
                    "name": "expiryDate",
                    "type": "uint256"
                },
                {
                    "internalType": "bool",
                    "name": "isAuthentic",
                    "type": "bool"
                }
            ],
            "stateMutability": "view",
            "type": "function"
        },
        {
            "inputs": [
                {
                    "internalType": "string",
                    "name": "_batchId",
                    "type": "string"
                }
            ],
            "name": "invalidateDrug",
            "outputs": [],
            "stateMutability": "nonpayable",
            "type": "function"
        },
        {
            "inputs": [],
            "name": "name",
            "outputs": [
                {
                    "internalType": "string",
                    "name": "",
                    "type": "string"
                }
            ],
            "stateMutability": "pure",
            "type": "function"
        },
        {
            "inputs": [],
            "name": "owner",
            "outputs": [
                {
                    "internalType": "address",
                    "name": "",
                    "type": "address"
                }
            ],
            "stateMutability": "view",
            "type": "function"
        },
        {
            "inputs": [
                {
                    "internalType": "string",
                    "name": "_batchId",
                    "type": "string"
                }
            ],
            "name": "verifyDrug",
            "outputs": [
                {
                    "internalType": "bool",
                    "name": "",
                    "type": "bool"
                }
            ],
            "stateMutability": "view",
            "type": "function"
        }
    ],
    "bytecode": "608080604052346026575f80546001600160a01b0319163317905561075e908161002b8239f35b5f80fdfe60806040526004361015610011575f80fd5b5f3560e01c806306fdde031461051e5780633b7b0a74146104c15780638da5cb5b1461049a578063b009493d146103e6578063b79befff146100cd5763fc0e4e2f1461005b575f80fd5b346100c95760203660031901126100c95760043567ffffffffffffffff81116100c957602080610090600493369085016105bd565b6100a460018060a01b035f541633146106eb565b604051928184925191829101835e60019082019081520301902001805460ff19169055005b5f80fd5b346100c95760803660031901126100c95760043567ffffffffffffffff81116100c9576100fe9036906004016105bd565b60243567ffffffffffffffff81116100c95761011e9036906004016105bd565b61013260018060a01b035f541633146106eb565b6040519160a0830183811067ffffffffffffffff821117610314576040528252602082019181835260408101604435815260608201906064358252602080608085019560018752604051928184925191829101835e81016001815203019020925180519067ffffffffffffffff82116103145781906101b18654610613565b601f8111610396575b50602090601f8311600114610333575f92610328575b50508160011b915f199060031b1c19161783555b60018301945194855167ffffffffffffffff8111610314576102068254610613565b601f81116102cf575b506020601f821160011461026a578190600497985f9261025f575b50508160011b915f199060031b1c19161790555b516002830155516003820155019051151560ff801983541691161790555f80f35b01519050888061022a565b601f19821697835f52815f20985f5b8181106102b7575091600498999184600195941061029f575b505050811b01905561023e565b01515f1960f88460031b161c19169055888080610292565b838301518b556001909a019960209384019301610279565b825f5260205f20601f830160051c8101916020841061030a575b601f0160051c01905b8181106102ff575061020f565b5f81556001016102f2565b90915081906102e9565b634e487b7160e01b5f52604160045260245ffd5b0151905087806101d0565b5f8781528281209350601f198516905b81811061037e5750908460019594939210610366575b505050811b0183556101e4565b01515f1960f88460031b161c19169055878080610359565b92936020600181928786015181550195019301610343565b909150855f5260205f20601f840160051c810191602085106103dc575b90601f859493920160051c01905b8181106103ce57506101ba565b5f81558493506001016103c1565b90915081906103b3565b346100c95760203660031901126100c95760043567ffffffffffffffff81116100c95760208061041d6104769336906004016105bd565b604051928184925191829101835e8101600181520301902061043e8161064b565b9061044b6001820161064b565b60028201549161048460ff60046003840154930154169260405196879660a0885260a0880190610577565b908682036020880152610577565b9260408501526060840152151560808301520390f35b346100c9575f3660031901126100c9575f546040516001600160a01b039091168152602090f35b346100c95760203660031901126100c95760043567ffffffffffffffff81116100c95760ff60046020806104f98195369085016105bd565b604051928184925191829101835e810160018152030190200154166040519015158152f35b346100c9575f3660031901126100c95761057360405161053f60408261059b565b601381527222393ab39020baba3432b73a34b1b0ba34b7b760691b6020820152604051918291602083526020830190610577565b0390f35b805180835260209291819084018484015e5f828201840152601f01601f1916010190565b90601f8019910116810190811067ffffffffffffffff82111761031457604052565b81601f820112156100c95780359067ffffffffffffffff821161031457604051926105f2601f8401601f19166020018561059b565b828452602083830101116100c957815f926020809301838601378301015290565b90600182811c92168015610641575b602083101461062d57565b634e487b7160e01b5f52602260045260245ffd5b91607f1691610622565b9060405191825f82549261065e84610613565b80845293600181169081156106c95750600114610685575b506106839250038361059b565b565b90505f9291925260205f20905f915b8183106106ad575050906020610683928201015f610676565b6020919350806001915483858901015201910190918492610694565b90506020925061068394915060ff191682840152151560051b8201015f610676565b156106f257565b60405162461bcd60e51b815260206004820152600e60248201526d139bdd08185d5d1a1bdc9a5e995960921b6044820152606490fdfea2646970667358221220c94d10fbfa954ef20d85172f9c625eef8b7c144e9dcd15976b25ccb4398492a764736f6c634300081e0033",
    "sourcePath": "c:/Users/ADMIN/Foundry/drug-auth-foundry/src/DrugAuth.sol",
    "compiler": {
        "name": "solc",
        "version": "0.8.30+commit.73712a01"
    },
    "functionHashes": {
        "addDrug(string,string,uint256,uint256)": "b79befff",
        "drugs(string)": "b009493d",
        "invalidateDrug(string)": "fc0e4e2f",
        "name()": "06fdde03",
        "owner()": "8da5cb5b",
        "verifyDrug(string)": "3b7b0a74"
    },
    "gasEstimates": {
        "creation": {
            "codeDepositCost": "377200",
            "executionCost": "24652",
            "totalCost": "401852"
        },
        "external": {
            "addDrug(string,string,uint256,uint256)": "infinite",
            "drugs(string)": "infinite",
            "invalidateDrug(string)": "infinite",
            "name()": "436",
            "owner()": "2315",
            "verifyDrug(string)": "infinite"
        }
    }
}